:0E0000001BC0FECFFDCFFCCFFBCFFACFF9CF58
:10000E00F8CFF7CFF6CFF5CFF4CFF3CFF2CFF1CFC6
:10001E00F0CFEFCFEECFEDCF1027E80364000A004C
:10002E0001000010000110000100F894EE27ECBB57
:10003E00F1E0FBBFEBBFE5BFF8E1F1BDE1BD8DE047
:10004E00A2E0BB27ED938A95E9F780E094E0A0E665
:10005E00ED930197E9F7EFE5EDBFE4E0EEBFC0E603
:10006E00D1E034C03FD141D1EA0FFB1FAA81BB8141
:10007E00EA17FB0750F036D138D142D3EA1BFB0BFF
:10008E00AA81BB81AE17BF0708F402C0E1E001C030
:10009E00E0E02496089596982FD1959A0895959814
:1000AE002BD1969A08959798959896989498089526
:1000BE00E881E064E7B983E08A95F1F7369A349BDC
:1000CE00FECF349AE4B1F5B1219608952697E0E07B
:1000DE00E983EAE0EA83E0E0EB83E4E6EC83E0E048
:1000EE00ED8300E010E020E030E0E883E1E0E8BBE3
:1000FE00E0E0E7BBEAE2E5BBE0E0E4BBE2BBEFEF4A
:10010E00E1BBE0E0E3BFE2BFEFBDEEBDEDBDECBD98
:10011E00E7BDE6BDEBBDEABDE9BDE8BDE2BDE5BDAF
:10012E00E4BDE3BDE5BFE9BFEAB9E0E8E8B9E0E068
:10013E00E0BFE0E4E7B9E1E8E6B9E0E0EDB9E6BF3B
:10014E0040E050E0E9834F5F5F4F999932C0E981FB
:10015E00E13049F4D7D0E0E0F2E0E9D2D6D0E0E0E9
:10016E00F2E0E5D2E983DA01E2E3F0E0BBD23097C8
:10017E0009F4909ADA01E4E6F0E0B4D2309709F48B
:10018E009098C6D0BFD0C9D029F0CAD018F42E1777
:10019E003F0718F4F901B6D0CAD2B7D0BED029F0B5
:1001AE00BFD018F4E217F30718F4F901AED0BFD29E
:1001BE0097C0E1E0E983A6D0B0D041F0B1D030F4E1
:1001CE00A4D0ABD019F0B0D0ABD040F0B0D0E4EFAB
:1001DE00F1E0B5D0909AB6D0B8D0B5CF93D097D233
:1001EE00FA93EA93A1D0FA93EA933CDFE03041F020
:1001FE009ED0A8D0AED09098A5D0ABD0A6D0A3CF8D
:10020E009C9910C09C9902C0A8D0FCCFA6D09C99F6
:10021E0002C0A3D0FCCF47DFE0EDF7E090D03FDF88
:10022E00E2E0E8839D9902C0B09901C005C09D9996
:10023E0002C093D0FCCF94D0E881E13079F468D03D
:10024E0073D0FF93EF9391D0AF91BF919ED0A1D079
:10025E0009F008F403C0E0E0E88325DFE881E2302E
:10026E0041F5EC81FD813197EC83FD83309749F4A4
:10027E00949B02C0949801C0949AE4E6F0E0EC835B
:10028E00FD8346D03FD043D22E173F0708F40BDF35
:10029E000217130751F4EA81FB813197EA83FB833E
:1002AE00309711F400DF7BD002C0890178D0B09B6B
:1002BE00FADEB09902C0E0E0E883E881E03011F4A4
:1002CE00B09B01C00DC024D02FD0FF93EF93EE0F43
:1002DE00FF1F4BD0AF91BF9158D05BD008F440D0E8
:1002EE0032CFFFCFA881B9810895EAE0E2D1DF01D4
:1002FE00E4E6F0E0E4D1F6CF979AEEE1F0E0FA937F
:10030E00EA9352C0A0E0B0E00895A2E0B0E00895F4
:10031E00E0E0EA93CDDE9F010895F9D1309708957C
:10032E00E130A4E0FA070895F0DFF1D10895909A34
:10033E00E8EEF3E0FA93EA9337D090980895FA93A3
:10034E00EA9332C0EAEFF0E0FACF9098E0EDF7E0F2
:10035E00F6CF909AE6E9F0E0F2CFEAE0F0E0EFCFE8
:10036E00A2DE99DEE1E0E88308956627772757D06D
:10037E00A0E0B0E080EA90E4D7D0DF01CB01E0E06E
:10038E00F0E068EC72E41ED1089588279927AFD16A
:10039E000895B0D177D0D901F8DF59D10895EAE0A8
:1003AE00F0E0EA83FB830895E991F991309639F0F4
:1003BE008AEF90E00197F1F7A8953197C9F7089564
:1003CE00552342F4503811F4E0FF04C03196691FF2
:1003DE00791F6BF050E8572711F45F9393C05F3F7E
:1003EE0031F0660F000C57956795752F08955F9342
:1003FE0000200AF093C08CC050E8192E1522880FE9
:10040E00991F9527550F879550E8072E0522660FE1
:10041E00771F7527550F67950895689401C0E89466
:10042E00309760407040B1F0002426F0772312F42C
:10043E0000942DD1172E7EE1112032F07A95EE0F19
:10044E00FF1F661F111CF9CFEF2FF62F612D5F9343
:10045E00C1DF5F9108954F93AF01FD01DA01AB014A
:10046E00BC01CA01402D012C142E4F910895EA0FA4
:10047E00FB1F681F0895E095F0956095EF5FFF4FA5
:10048E006F4F08955F93B8DF903849F150E8152605
:10049E00703821F1572F591B2BF112F4DCDFFACFF4
:1004AE00583118F0AA27BB278827583028F0AB2FD1
:1004BE00B82F88275850F9CF552329F08695B79530
:1004CE00A7955A95D9F7502D512572F0D0DF38F4F3
:1004DE006795F795E795739513F420C0BCDF7ADF27
:1004EE005F910895D8F7FBCFEA1BFB0B680B51F019
:1004FE0010F40094C0DF662392F3EE0FFF1F661F09
:10050E007A95CBF7EE27FF27662777275F91089519
:10051E00EFEFFFEF6FE77FEF5F910895EFEFFFEFE4
:10052E006FE77FE75F9108955F9366DF703851F351
:10053E00903841F301240894791F23F41CF3002012
:10054E003AF3ECCF0F921F932F933F934F931127B4
:10055E0022279927689FA0018F9F302D410D591F8B
:10056E006B9F300D411D591F8E9F27D0BF9F25D0E9
:10057E006A9F23D0BE9F1DD0AF9F1BD0AE9F110D83
:10058E00291F391F491F591FE32FF42F652F522F93
:10059E004F913F912F911F910F9066232AF0550F87
:1005AE00EE1FFF1F661F02C073954BF209DF5F91AE
:1005BE000895100D211D391F02C0200D311D491F38
:1005CE00591F08955F9318DF703821F411200AF433
:1005DE009FCFA4CF903809F495CF01240894970BA0
:1005EE001BF4D4F30020F3CF792F1F932F933F9357
:1005FE004F9311241127222733274427552790E2A2
:10060E00AE17BF078607410730F0AE1BBF0B860B38
:10061E00410B089401C08894551F221F331F111CD3
:10062E00AA1FBB1F881F441F9A9551F7F901612D10
:10063E004F913F912F911F91662332F0550FEE1F70
:10064E00FF1F661F7A9543F2BBDE5F9108959923D3
:10065E009AF0772342F0971748F029F4AE17BF07A8
:10066E00860720F031F09894889408959894089411
:10067E0008951894889408957723C2F7971798F3DE
:10068E00A9F7EA17FB07680788F399F3ECCFF09503
:10069E0060957095E195FF4F6F4F7F4F08956F2FC7
:1006AE00660F660B762F08958B2F880F880B982F69
:1006BE0008956E2F6A9FF0016B9FF00D0895002430
:1006CE00112490E1AA0FBB1F001C111C0E1A1F0A49
:1006DE0018F40E0E1F1E01C0A1609A9599F7FD0128
:1006EE00D0010895ECDFFD010895689401C0E894EF
:1006FE0001D096DE182E862F612D192E972F712D73
:10070E001B2EBF2FF12D1A2EAE2FE12D089511960F
:10071E0002D0FE2F1197E199FECFFF93FFB7F89409
:10072E00AEBBBFBBE09AEDB3FFBFFF91089507D0FC
:10073E001196EF93EF2F03D0EF9111970895E19B50
:10074E0002C0A895FCCF9FB7F894AEBBBFBBE09A92
:10075E008DB3E81719F0EDBBE29AE19A9FBF0895A9
:00000001FF
