:080000001BC0FECFFDCFFCCFB9
:10000800FBCFFACFF9CFF8CFF7CFF6CFF5CFF4CFB4
:10001800F3CFF2CFF1CFF0CFEFCFEECFEDCF102768
:10002800E80364000A00010000100001100001004C
:10003800F894EE27ECBBF1E0FBBFEBBFE5BFF8E1BE
:10004800F1BDE1BD8DE0A2E0BB27ED938A95E9F70C
:1000580080E094E0A0E6ED930197E9F7EFE5EDBFC6
:10006800E4E0EEBFC0E6D1E01AC09698BAD0959AFF
:1000780008959598B6D0969A0895979895989698D1
:100088000895E881E064E7B983E08A95F1F7369A44
:10009800349BFECF349AE4B1F5B12196089500E07F
:1000A80010E030E0E1E0E8BBE0E0E7BBE2E2E5BB1E
:1000B800E0E0E4BBE2BBEFEFE1BBE0E0E3BFE2BFBF
:1000C800EFBDEEBDEDBDECBDE7BDE6BDEBBDEABDE8
:1000D800E9BDE8BDE2BDE5BDE4BDE3BDE5BFE9BFFF
:1000E800EAB9E0E8E8B9E0E0E0BFE0E4E7B9E1E870
:1000F800E6B9E0E0EDB9E6BF999918C078D07CD0B0
:100108007ED029F07FD018F40E171F0718F4F801D5
:1001180073D045D27BD073D029F074D018F4E0178F
:10012800F10718F4F80172D03AD259C065D067D0F7
:1001380049F068D038F46AD062D021F067D01FD275
:1001480061D008F0D9CF9C9B07C09C9B02C061D0AE
:10015800FCCF93DF8EDF32E09D9902C0B09901C0D9
:1001680007C09D9902C055D0FCCF87DF7EDF31E004
:10017800313011F4B09901C00FC039D047D0FFD148
:10018800FF93EF934BD0AF91BF9158D05BD009F05C
:1001980008F402C030E071DF323011F4B09901C0C8
:1001A80007C025D029D0EBD10E171F0708F465DF4B
:1001B800B09B30E0303011F4B09901C010C017D0B6
:1001C80025D0DDD1FF93EF93EE0FFF1F27D0AF911E
:1001D800BF9134D037D018F450DF47DF31E08CCFEF
:1001E800FFCF979AE4EFF1E0FA93EA9331C0E0E0A9
:1001F800EA9347DF8F010895A0E0B0E00895BFD1EA
:1002080030970895E130A4E0FA070895A2E0B0E03D
:100218000895EAE0F0E0FA93EA931AC06627772790
:1002280052D0A0E0B0E080EA90E4D2D0DF01CB0168
:10023800E0E0F0E068EC72E419D108958827992786
:100248008ED108958FD172D0D801F8DF54D1089596
:10025800E991F991309639F08AEF90E00197F1F73A
:10026800A8953197C9F70895552342F4503811F4E9
:10027800E0FF04C03196691F791F6BF050E85727DB
:1002880011F45F9393C05F3F31F0660F000C5795F0
:100298006795752F08955F9300200AF093C08CC06E
:1002A80050E8192E1522880F991F9527550F879505
:1002B80050E8072E0522660F771F7527550F67959B
:1002C8000895689401C0E894309760407040B1F098
:1002D800002426F0772312F400942DD1172E7EE106
:1002E800112032F07A95EE0FFF1F661F111CF9CF0F
:1002F800EF2FF62F612D5F93C1DF5F9108954F9324
:10030800AF01FD01DA01AB01BC01CA01402D012C8E
:10031800142E4F910895EA0FFB1F681F0895E0956A
:10032800F0956095EF5FFF4F6F4F08955F93B8DFCB
:10033800903849F150E81526703821F1572F591B8C
:100348002BF112F4DCDFFACF583118F0AA27BB27BB
:100358008827583028F0AB2FB82F88275850F9CF66
:10036800552329F08695B795A7955A95D9F7502D15
:10037800512572F0D0DF38F46795F795E7957395B6
:1003880013F420C0BCDF7ADF5F910895D8F7FBCF64
:10039800EA1BFB0B680B51F010F40094C0DF6623D6
:1003A80092F3EE0FFF1F661F7A95CBF7EE27FF2714
:1003B800662777275F910895EFEFFFEF6FE77FEFED
:1003C8005F910895EFEFFFEF6FE77FE75F91089583
:1003D8005F9366DF703851F3903841F30124089435
:1003E800791F23F41CF300203AF3ECCF0F921F93EC
:1003F8002F933F934F93112722279927689FA00196
:100408008F9F302D410D591F6B9F300D411D591F76
:100418008E9F27D0BF9F25D06A9F23D0BE9F1DD017
:10042800AF9F1BD0AE9F110D291F391F491F591FA0
:10043800E32FF42F652F522F4F913F912F911F914A
:100448000F9066232AF0550FEE1FFF1F661F02C08C
:1004580073954BF209DF5F910895100D211D391F27
:1004680002C0200D311D491F591F08955F9318DFE1
:10047800703821F411200AF49FCFA4CF903809F4E2
:1004880095CF01240894970B1BF4D4F30020F3CFE5
:10049800792F1F932F933F934F93112411272227CE
:1004A80033274427552790E2AE17BF078607410731
:1004B80030F0AE1BBF0B860B410B089401C088942B
:1004C800551F221F331F111CAA1FBB1F881F441F43
:1004D8009A9551F7F901612D4F913F912F911F91F5
:1004E800662332F0550FEE1FFF1F661F7A9543F201
:1004F800BBDE5F91089599239AF0772342F097170E
:1005080048F029F4AE17BF07860720F031F0989419
:100518008894089598940894089518948894089550
:100528007723C2F7971798F3A9F7EA17FB07680725
:1005380088F399F3ECCFF09560957095E195FF4FAE
:100548006F4F7F4F08956F2F660F660B762F0895B4
:100558008B2F880F880B982F0895689401C0E89412
:1005680001D0B2DE182E862F612D192E972F712DEE
:100578001B2EBF2FF12D1A2EAE2FE12D08951196A7
:1005880002D0FE2F1197E199FECFFF93FFB7F894A1
:10059800AEBBBFBBE09AEDB3FFBFFF91089507D094
:1005A8001196EF93EF2F03D0EF9111970895E19BE8
:1005B80002C0A895FCCF9FB7F894AEBBBFBBE09A2A
:1005C8008DB3E81719F0EDBBE29AE19A9FBF089541
:00000001FF
