:040000001BC0FECF54
:10000400FDCFFCCFFBCFFACFF9CFF8CFF7CFF6CFA8
:10001400F5CFF4CFF3CFF2CFF1CFF0CFEFCFEECFD8
:10002400EDCF1027E80364000A000100001000016E
:1000340010000100F894EE27ECBBF1E0FBBFEBBF2E
:10004400E5BFF8E1F1BDE1BD8DE0A2E0BB27ED9392
:100054008A95E9F780E094E0A0E6ED930197E9F74B
:10006400EFE5EDBFE4E0EEBFC0E6D1E032C070D111
:1000740072D1EA0FFB1FAA81BB81EA17FB0750F07C
:1000840067D169D185D3EA1BFB0BAA81BB81AE176B
:10009400BF0708F402C0E1E001C0E0E0249608953F
:1000A40061D1959A08955ED1969A089597989598F6
:1000B400969894980895E881E064E7B983E08A9576
:1000C400F1F7369A349BFECF349AE4B1F5B1219618
:1000D40008952797E0E0E983EA83EEE1EB83E0E02B
:1000E400EC83E4E6ED83E0E0EE8300E010E020E062
:1000F40030E0E883E1E0E8BBE0E0E7BBEAE2E5BB4F
:10010400E0E0E4BBE2BBEFEFE1BBE0E0E3BFE2BF72
:10011400EFBDEEBDEDBDECBDE7BDE6BDEBBDEABD9B
:10012400E9BDE8BDE2BDE5BDE4BDE3BDE5BFE9BFB2
:10013400EAB9E0E8E8B9E0E0E0BFE0E4E7B9E1E823
:10014400E6B9E0E0EDB9E6BF40E050E0EA83E983D8
:10015400A981A13028F40ED1E981EF5FE983F8CFBA
:100164004F5F5F4F999931C0EA81E13049F40ED174
:10017400E0E0F2E024D30DD1E0E0F2E020D3EA8322
:10018400DA01E2E3F0E0F6D2309709F4909ADA016A
:1001940003D1F0D2309709F4909801D1F7D004D16B
:1001A40029F005D118F42E173F0718F4F901EED001
:1001B40006D3EFD0F9D029F0FAD018F4E217F307F8
:1001C40018F4F901E6D0FBD2C1C0E1E0EA83DED045
:1001D400EBD041F0ECD030F4DCD0E6D019F0EBD029
:1001E400E6D058F0EBD09098E4EFF1E0EDD0909A9F
:1001F400EAEFF0E0E9D0EBD0B3CFC8D0D0D2FA9395
:10020400EA93D9D0FA93EA9332DFE03029F0D6D0DA
:10021400B1D0B0D0DCD0A4CF90989C991AC09C994E
:1002240002C0D9D0FCCFD7D09C9902C0D4D0FCCF87
:10023400D5D0D7D0D3D0309731F4949B02C09498C2
:1002440001C0949AD2D0E8EEF3E0BED02CDFE2E015
:10025400E8839D9902C0B09901C007C09D9902C06E
:10026400BAD0FCCFC6D0BAD0BCD0E881E13019F501
:10027400B5D0B7D0B3D0309731F4949B02C09498E2
:1002840001C0949AB2D08BD096D0FF93EF93B6D09E
:10029400AF91BF91C3D076D238D1A0E0B0E088E46A
:1002A40092E43AD1D901BAD01AD209F008F403C0C1
:1002B400E0E0E883FBDEE881E23031F58FD091D0D5
:1002C4008DD0309731F4949B02C0949801C0949AD5
:1002D4008CD065D05BD063D22E173F0708F4E6DEDE
:1002E4000217130769F4EB81FC813197EB83FC83DC
:1002F400309729F4DBDE96D0D3DEE1E0E88302C058
:10030400890190D0B099D2DEB09B03C0CFDEE0E08B
:10031400E883E881E03011F4B09B01C017C03FD0FE
:100324004AD0FF93EF936AD0AF91BF9177D02AD28E
:10033400ECD0DF01CB01E0E0F0E064EB72E422D228
:10034400E4D0D9016BD0CBD108F453D009CFFFCF7F
:10035400A881B9810895EAE0F4D1DF01E4E6F0E090
:10036400F6D1F6CF95989698979AE4E6F0E0FA934A
:10037400EA935DC09098EAEFF0E0FA93EA9357D0DD
:10038400909AE6E9F0E0FA93EA9351C0A0E0B0E075
:100394000895A2E0B0E00895E4E6F0E00895E0E016
:1003A400EA9389DE9F010895FAD130970895E130E8
:1003B400A4E0FA070895EDDFF2D10895909AE8EEEB
:1003C400F3E0FA93EA9333C0FA93EA9330C0909837
:1003D400E0EDF7E0F9CFEAE0F0E0F6CFED81FE8161
:1003E40008953197ED83FE830895D6DFED83FE8370
:1003F40008955CDE55DEE1E0E883089566277727FB
:1004040051D0A0E0B0E080EA90E4D6D0DF01CB0187
:10041400E0E0F0E068EC72E41DD1089588279927A4
:10042400AED10895EEE1F0E0EB83FC830895E99109
:10043400F991309639F08AEF90E00197F1F7A89599
:100444003197C9F70895552342F4503811F4E0FF69
:1004540004C03196691F791F6BF050E8572711F4D7
:100464005F9398C05F3F31F0660F000C5795679516
:10047400752F08955F9300200AF098C091C050E84A
:10048400192E1522880F991F9527550F879550E827
:10049400072E0522660F771F7527550F6795089558
:1004A400689401C0E894309760407040B1F0002433
:1004B40026F0772312F4009432D1172E7EE1112016
:1004C40032F07A95EE0FFF1F661F111CF9CFEF2F44
:1004D400F62F612D5F93C1DF5F9108954F93AF01B4
:1004E400FD01DA01AB01BC01CA01402D012C142E1F
:1004F4004F910895EA0FFB1F681F0895E095F0954A
:100504006095EF5FFF4F6F4F08955F93B8DF9038AA
:1005140071F150E8152604C05F93B1DF903839F1CA
:10052400703821F1572F591B2BF112F4D7DFFACF72
:10053400583118F0AA27BB278827583028F0AB2F4A
:10054400B82F88275850F9CF552329F08695B795A9
:10055400A7955A95D9F7502D512572F0CBDF38F471
:100564006795F795E795739513F420C0B7DF75DFAA
:100574005F910895D8F7FBCFEA1BFB0B680B51F092
:1005840010F40094BBDF662392F3EE0FFF1F661F87
:100594007A95CBF7EE27FF27662777275F91089593
:1005A400EFEFFFEF6FE77FEF5F910895EFEFFFEF5E
:1005B4006FE77FE75F9108955F9361DF703851F3D0
:1005C400903841F301240894791F23F41CF300208C
:1005D4003AF3ECCF0F921F932F933F934F9311272E
:1005E40022279927689FA0018F9F302D410D591F05
:1005F4006B9F300D411D591F8E9F27D0BF9F25D063
:100604006A9F23D0BE9F1DD0AF9F1BD0AE9F110DFC
:10061400291F391F491F591FE32FF42F652F522F0C
:100624004F913F912F911F910F9066232AF0550F00
:10063400EE1FFF1F661F02C073954BF204DF5F912C
:100644000895100D211D391F02C0200D311D491FB1
:10065400591F08955F9313DF703821F411200AF4B1
:100664009FCFA4CF903809F495CF01240894970B19
:100674001BF4D4F30020F3CF792F1F932F933F93D0
:100684004F9311241127222733274427552790E21B
:10069400AE17BF078607410730F0AE1BBF0B860BB2
:1006A400410B089401C08894551F221F331F111C4D
:1006B400AA1FBB1F881F441F9A9551F7F901612D8A
:1006C4004F913F912F911F91662332F0550FEE1FEA
:1006D400FF1F661F7A9543F2B6DE5F910895992352
:1006E4009AF0772342F0971748F029F4AE17BF0722
:1006F400860720F031F0989488940895989408948B
:1007040008951894889408957723C2F7971798F357
:10071400A9F7EA17FB07680788F399F3ECCFF0957C
:1007240060957095E195FF4F6F4F7F4F08956F2F40
:10073400660F660B762F08958B2F880F880B982FE2
:1007440008956E2F6A9FF0016B9FF00D08950024A9
:10075400112490E1AA0FBB1F001C111C0E1A1F0AC2
:1007640018F40E0E1F1E01C0A1609A9599F7FD01A1
:10077400D0010895ECDFFD010895689401C0E89468
:1007840001D091DE182E862F612D192E972F712DF1
:100794001B2EBF2FF12D1A2EAE2FE12D0895119689
:1007A40002D0FE2F1197E199FECFFF93FFB7F89483
:1007B400AEBBBFBBE09AEDB3FFBFFF91089507D076
:1007C4001196EF93EF2F03D0EF9111970895E19BCA
:1007D40002C0A895FCCF9FB7F894AEBBBFBBE09A0C
:1007E4008DB3E81719F0EDBBE29AE19A9FBF089523
:00000001FF
