:100000001BC0FECFFDCFFCCFFBCFFACFF9CFF8CF8F
:10001000F7CFF6CFF5CFF4CFF3CFF2CFF1CFF0CFCC
:10002000EFCFEECFEDCF1027E80364000A00010008
:100030000010000110000100F894EE27ECBBF1E085
:10004000FBBFEBBFE5BFF8E1F1BDE1BD8DE0A2E094
:10005000BB27ED938A95E9F780E094E0A0E6ED9365
:100060000197E9F7EFE5EDBFE4E0EEBFC0E6D1E0D0
:1000700032C043D145D1EA0FFB1FAA81BB81EA17E9
:10008000FB0750F03AD13CD14BD3EA1BFB0BAA81C2
:10009000BB81AE17BF0708F402C0E1E001C0E0E099
:1000A0002496089534D1959A089531D1969A089559
:1000B00097989598969894980895E881E064E7B9A0
:1000C00083E08A95F1F7369A349BFECF349AE4B1F7
:1000D000F5B1219608952797E0E0E983EA83E2E30A
:1000E000EB83E0E0EC83E4E6ED83E0E0EE8300E028
:1000F00010E020E030E0E883E1E0E8BBE0E0E7BBCF
:10010000EAE2E5BBE0E0E4BBE2BBEFEFE1BBE0E04D
:10011000E3BFE2BFEFBDEEBDEDBDECBDE7BDE6BDAB
:10012000EBBDEABDE9BDE8BDE2BDE5BDE4BDE3BDB3
:10013000E5BFE9BFEAB9E0E8E8B9E0E0E0BFE0E444
:10014000E7B9E1E8E6B9E0E0EDB9E6BF40E050E04C
:10015000EA83E983A981A13028F4E1D0E981EF5F46
:10016000E983F8CF4F5F5F4F999932C0EA81E13060
:1001700049F4E1D0E0E0F2E0EAD2E0D0E0E0F2E001
:10018000E6D2EA83DA01E2E3F0E0BCD2309709F488
:10019000909ADA01E4E6F0E0B5D2309709F490984D
:1001A000D0D0C9D0D3D029F0D4D018F42E173F071F
:1001B00018F4F901C0D0CBD2C1D0C8D029F0C9D031
:1001C00018F4E217F30718F4F901B8D0C0D293C0BD
:1001D000E1E0EA83B0D0BAD041F0BBD030F4AED089
:1001E000B5D019F0BAD0B5D058F0BAD09098E4EFA5
:1001F000F1E0BCD0909AEAEFF0E0B8D0BAD0B2CF3C
:100200009AD095D2FA93EA93A8D0FA93EA9331DF81
:10021000E03029F0A5D083D082D0ABD0A3CF909886
:100220009C990CC09C9902C0A8D0FCCFA6D09C99E8
:1002300002C0A3D0FCCF39DFE2E0E8839D9902C081
:10024000B09901C005C09D9902C097D0FCCF98D04D
:10025000E881E13079F475D080D0FF93EF9395D0A9
:10026000AF91BF91A2D0A5D009F008F403C0E0E09F
:10027000E8831EDFE881E23041F5ED81FE813197B0
:10028000ED83FE83309749F4949B02C0949801C09B
:10029000949AE4E6F0E0ED83FE8353D04CD047D24D
:1002A0002E173F0708F404DF0217130751F4EB8100
:1002B000FC813197EB83FC83309711F4F9DE7FD01A
:1002C00002C089017CD0B099F3DEB09B03C0F0DEA0
:1002D000E0E0E883E881E03011F4B09B01C00BC09E
:1002E00030D03BD0FF93EF9350D0AF91BF915DD012
:1002F00060D008F445D036CFFFCFA881B9810895EA
:10030000EAE0E7D1DF01E4E6F0E0E9D1F6CF959845
:100310009698979AE4E6F0E0FA93EA9355C090989D
:10032000EAEFF0E0FA93EA934FD0909AE6E9F0E032
:10033000FA93EA9349C0A0E0B0E00895A2E0B0E0EB
:100340000895E0E0EA93B9DE9F010895F0D1309777
:100350000895E130A4E0FA070895F0DFE8D10895A8
:10036000909AE8EEF3E0FA93EA932EC0FA93EA93B8
:100370002BC09098E0EDF7E0F9CFEAE0F0E0F6CF9F
:1003800097DE90DEE1E0E88308956627772757D06F
:10039000A0E0B0E080EA90E4D7D0DF01CB01E0E05C
:1003A000F0E068EC72E41ED1089588279927AFD158
:1003B0000895B0D177D0D901F8DF59D10895E2E39B
:1003C000F0E0EB83FC830895E991F991309639F0E0
:1003D0008AEF90E00197F1F7A8953197C9F7089552
:1003E000552342F4503811F4E0FF04C03196691FE0
:1003F000791F6BF050E8572711F45F9393C05F3F6C
:1004000031F0660F000C57956795752F08955F932F
:1004100000200AF093C08CC050E8192E1522880FD6
:10042000991F9527550F879550E8072E0522660FCF
:10043000771F7527550F67950895689401C0E89454
:10044000309760407040B1F0002426F0772312F41A
:1004500000942DD1172E7EE1112032F07A95EE0F07
:10046000FF1F661F111CF9CFEF2FF62F612D5F9331
:10047000C1DF5F9108954F93AF01FD01DA01AB0138
:10048000BC01CA01402D012C142E4F910895EA0F92
:10049000FB1F681F0895E095F0956095EF5FFF4F93
:1004A0006F4F08955F93B8DF903849F150E81526F3
:1004B000703821F1572F591B2BF112F4DCDFFACFE2
:1004C000583118F0AA27BB278827583028F0AB2FBF
:1004D000B82F88275850F9CF552329F08695B7951E
:1004E000A7955A95D9F7502D512572F0D0DF38F4E1
:1004F0006795F795E795739513F420C0BCDF7ADF15
:100500005F910895D8F7FBCFEA1BFB0B680B51F006
:1005100010F40094C0DF662392F3EE0FFF1F661FF6
:100520007A95CBF7EE27FF27662777275F91089507
:10053000EFEFFFEF6FE77FEF5F910895EFEFFFEFD2
:100540006FE77FE75F9108955F9366DF703851F33F
:10055000903841F301240894791F23F41CF3002000
:100560003AF3ECCF0F921F932F933F934F931127A2
:1005700022279927689FA0018F9F302D410D591F79
:100580006B9F300D411D591F8E9F27D0BF9F25D0D7
:100590006A9F23D0BE9F1DD0AF9F1BD0AE9F110D71
:1005A000291F391F491F591FE32FF42F652F522F81
:1005B0004F913F912F911F910F9066232AF0550F75
:1005C000EE1FFF1F661F02C073954BF209DF5F919C
:1005D0000895100D211D391F02C0200D311D491F26
:1005E000591F08955F9318DF703821F411200AF421
:1005F0009FCFA4CF903809F495CF01240894970B8E
:100600001BF4D4F30020F3CF792F1F932F933F9344
:100610004F9311241127222733274427552790E28F
:10062000AE17BF078607410730F0AE1BBF0B860B26
:10063000410B089401C08894551F221F331F111CC1
:10064000AA1FBB1F881F441F9A9551F7F901612DFE
:100650004F913F912F911F91662332F0550FEE1F5E
:10066000FF1F661F7A9543F2BBDE5F9108959923C1
:100670009AF0772342F0971748F029F4AE17BF0796
:10068000860720F031F098948894089598940894FF
:1006900008951894889408957723C2F7971798F3CC
:1006A000A9F7EA17FB07680788F399F3ECCFF095F1
:1006B00060957095E195FF4F6F4F7F4F08956F2FB5
:1006C000660F660B762F08958B2F880F880B982F57
:1006D00008956E2F6A9FF0016B9FF00D089500241E
:1006E000112490E1AA0FBB1F001C111C0E1A1F0A37
:1006F00018F40E0E1F1E01C0A1609A9599F7FD0116
:10070000D0010895ECDFFD010895689401C0E894DC
:1007100001D096DE182E862F612D192E972F712D60
:100720001B2EBF2FF12D1A2EAE2FE12D08951196FD
:1007300002D0FE2F1197E199FECFFF93FFB7F894F7
:10074000AEBBBFBBE09AEDB3FFBFFF91089507D0EA
:100750001196EF93EF2F03D0EF9111970895E19B3E
:1007600002C0A895FCCF9FB7F894AEBBBFBBE09A80
:100770008DB3E81719F0EDBBE29AE19A9FBF089597
:00000001FF
