:080000001BC0FECFFDCFFCCFB9
:10000800FBCFFACFF9CFF8CFF7CFF6CFF5CFF4CFB4
:10001800F3CFF2CFF1CFF0CFEFCFEECFEDCF102768
:10002800E80364000A00010000100001100001004C
:10003800F894EE27ECBBF1E0FBBFEBBFE5BFF8E1BE
:10004800F1BDE1BD8DE0A2E0BB27ED938A95E9F70C
:1000580080E094E0A0E6ED930197E9F7EFE5EDBFC6
:10006800E4E0EEBFC0E6D1E01AC0969870D0959A49
:10007800089595986CD0969A08959798959896981B
:100088000895E881E064E7B983E08A95F1F7369A44
:10009800349BFECF349AE4B1F5B12196089500E07F
:1000A80010E030E0E0E0E8BBE7BBE0E2E5BBE0E021
:1000B800E4BBE2BBEFEFE1BBE0E0E3BFE2BFEFBDD3
:1000C800EEBDEDBDECBDE7BDE6BDEBBDEABDE9BDEE
:1000D800E8BDE2BDE5BDE4BDE3BDE5BFE9BFEAB902
:1000E800E0E8E8B9E0E0E0BFE0E4E7B9E1E8E6B974
:1000F800E0E0EDB9E6BF9C9B07C09C9B02C02DD0F9
:10010800FCCFBBDFB6DF32E09D9907C09D9902C0E6
:1001180024D0FCCFB2DFA9DF31E0313059F422D04E
:10012800E8E4F1EE6AE774E476D009F008F402C076
:1001380030E0A3DF323049F415D0ECEEF1E568E3A6
:1001480073E469D010F430E098DFD5CFFFCF979AE9
:10015800E4EFF1E0FA93EA9310C0EAE0F0E0FA93F2
:10016800EA930BC0E0E0EA938CDF8F01F801662781
:10017800772723D0DF01CB010895E991F9913096D3
:1001880039F08AEF90E00197F1F7A8953197C9F710
:10019800089550E8572711F45F932BC05F3F31F063
:1001A800660F000C57956795752F08955F9300208B
:1001B8000AF02BC024C0689401C0E89430976040CE
:1001C8007040B1F0002426F0772312F4009443D055
:1001D800172E7EE1112032F07A95EE0FFF1F661F71
:1001E800111CF9CFEF2FF62F612D5F93D2DF5F91AE
:1001F8000895EE27FF27662777275F910895EFEF89
:10020800FFEF6FE77FEF5F910895EFEFFFEF6FE785
:100218007FE75F91089599239AF0772342F0971723
:1002280048F029F4AE17BF07860720F031F09894FC
:100238008894089598940894089518948894089533
:100248007723C2F7971798F3A9F7EA17FB07680708
:1002580088F399F3ECCFF09560957095E195FF4F91
:100268006F4F7F4F08956F2F660F660B762F089597
:00000001FF
